:100000000C9434000C945F070C9494070C943E00FD
:100010000C943E000C943E000C943E000C943E0068
:100020000C943E000C943E000C943E000C943E0058
:100030000C943E000C943E000C943E000C943E0048
:100040000C943E000C943E000C943E000C943E0038
:100050000C943E000C943E000C943E000C943E0028
:100060000C943E000C943E0011241FBECFEFD4E050
:10007000DEBFCDBF0E944C070C94C9070C94000052
:10008000DF93CF9300D000D00F92CDB7DEB78FEFC4
:1000900090E09D838C8384E28B8381E08A838DE66C
:1000A00089830E94490680E067E970E00E94F400BD
:1000B00081E067E970E00E94F40089E060E070E0B0
:1000C0000E94F4002C813D8182E0B9010E94F4007D
:1000D0002C813D8183E0B9010E94F4008B81282F9F
:1000E00030E084E0B9010E94F4008A81282F30E0DA
:1000F00085E0B9010E94F4008981282F30E086E074
:10010000B9010E94F40087E06AE070E00E94F40008
:1001100088E060E070E00E94F4000F900F900F9074
:100120000F900F90CF91DF910895DF93CF93CDB7CC
:10013000DEB727970FB6F894DEBF0FBECDBF87E1BD
:1001400090E09F838E8389EF90E09D838C8388E08D
:100150008B8381E08A838EE689830E94490689E049
:1001600060E070E00E94F4002E813F8180E0B901E0
:100170000E94F4002E813F8181E0B9010E94F400C9
:100180002C813D8182E0B9010E94F4002C813D81E7
:1001900083E0B9010E94F4008B81282F30E084E0D5
:1001A000B9010E94F4008A81282F30E085E0B9016E
:1001B0000E94F4008981282F30E086E0B9010E9476
:1001C000F40087E06AE070E00E94F40088E060E0FC
:1001D00070E00E94F40027960FB6F894DEBF0FBEC1
:1001E000CDBFCF91DF910895DF93CF9300D000D0A2
:1001F000CDB7DEB78A837C836B838A81992787FD9D
:100200009095880F991F89838B819C81892F9927CD
:10021000982F91708981892B89830E945A0684E3E3
:1002200061E070E00E947606898162E070E00E94E1
:1002300076068B8163E070E00E9476060E94D1060C
:100240000F900F900F900F90CF91DF910895DF9353
:10025000CF93CDB7DEB727970FB6F894DEBF0FBEAA
:10026000CDBF8FE790E09F838E8384E18D8386E00E
:100270008C831B8281E08A8382E089830E94490605
:1002800089E060E070E00E94F4002E813F8182E00E
:10029000B9010E94F4002E813F8183E0B9010E94E0
:1002A000F4008D81282F30E084E0B9010E94F40031
:1002B0008C81282F30E085E0B9010E94F4008B8109
:1002C000282F30E086E0B9010E94F4008A81282FAF
:1002D00030E087E0B9010E94F4008981282F30E0E6
:1002E00088E0B9010E94F40089E061E070E00E94BA
:1002F000F40027960FB6F894DEBF0FBECDBFCF91A6
:10030000DF910895DF93CF93CDB7DEB729970FB66E
:10031000F894DEBF0FBECDBF87E190E09987888754
:1003200089E790E09F838E8380E18D8386E08C83D4
:100330001B8281E08A8382E089830E94490689E0EA
:1003400060E070E00E94F4002885398580E0B90102
:100350000E94F4002885398581E0B9010E94F400EB
:100360002E813F8182E0B9010E94F4002E813F81FD
:1003700083E0B9010E94F4008D81282F30E084E0F1
:10038000B9010E94F4008C81282F30E085E0B9018A
:100390000E94F4008B81282F30E086E0B9010E9492
:1003A000F4008A81282F30E087E0B9010E94F40030
:1003B0008981282F30E088E0B9010E94F40089E0AB
:1003C00061E070E00E94F40029960FB6F894DEBF59
:1003D0000FBECDBFCF91DF910895DF93CF93CDB7FF
:1003E000DEB727970FB6F894DEBF0FBECDBF87E903
:1003F00090E09F838E838FEF90E09D838C8382E2D9
:100400008B8381E08A838CE689830E9449062E8152
:100410003F8180E0B9010E94F4002E813F8181E09C
:10042000B9010E94F4002C813D8182E0B9010E9453
:10043000F4002C813D8183E0B9010E94F4008B819E
:10044000282F30E084E0B9010E94F4008A81282F2F
:1004500030E085E0B9010E94F4008981282F30E066
:1004600086E0B9010E94F40087E06AE070E00E9433
:10047000F40088E060E070E00E94F40089E060E051
:1004800070E00E94F40027960FB6F894DEBF0FBE0E
:10049000CDBFCF91DF910895DF93CF93CDB7DEB776
:1004A00027970FB6F894DEBF0FBECDBF87E990E067
:1004B0009F838E8389EF90E09D838C8388E08B837C
:1004C00081E08A838EE689830E9449062E813F81DE
:1004D00080E0B9010E94F4002E813F8181E0B901E2
:1004E0000E94F4002C813D8182E0B9010E94F40059
:1004F0002C813D8183E0B9010E94F4008B81282F7B
:1005000030E084E0B9010E94F4008A81282F30E0B5
:1005100085E0B9010E94F4008981282F30E086E04F
:10052000B9010E94F40087E06AE070E00E94F400E4
:1005300088E060E070E00E94F40089E060E070E034
:100540000E94F40027960FB6F894DEBF0FBECDBF11
:10055000CF91DF910895DF93CF93CDB7DEB72B977F
:100560000FB6F894DEBF0FBECDBF87E990E09B8742
:100570008A8787E990E09987888780EF90E09F835A
:100580008E8380EF90E09D838C8382E28B8381E079
:100590008A838CE689830E9449062A853B8580E010
:1005A000B9010E94F4002885398581E0B9010E94D3
:1005B000F4002E813F8182E0B9010E94F4002C8179
:1005C0003D8183E0B9010E94F4008B81282F30E047
:1005D00084E0B9010E94F4008A81282F30E085E090
:1005E000B9010E94F4008981282F30E086E0B9012A
:1005F0000E94F40087E06AE070E00E94F40088E066
:1006000060E070E00E94F4002B960FB6F894DEBF15
:100610000FBECDBFCF91DF910895DF93CF93CDB7BC
:10062000DEB727970FB6F894DEBF0FBECDBF89EFB8
:1006300090E09F838E8384E18D8381E08C8381E4CD
:100640008B838AE58A8319820E9449062E813F8125
:1006500082E0B9010E94F4002E813F8183E0B9015C
:100660000E94F4008D81282F30E084E0B9010E94BF
:10067000F4008C81282F30E085E0B9010E94F4005D
:100680008B81282F30E086E0B9010E94F4008A8136
:10069000282F30E087E0B9010E94F4008981282FDB
:1006A00030E088E0B9010E94F40089E061E070E088
:1006B0000E94F40027960FB6F894DEBF0FBECDBFA0
:1006C000CF91DF910895DF93CF93CDB7DEB70E942E
:1006D00049068FE060E070E00E94F40080E067E986
:1006E00070E00E94F40081E067E970E00E94F4008D
:1006F00082E069E770E00E94F40083E069E770E05F
:100700000E94F40084E06AE070E00E94F40085E05A
:1007100068E070E00E94F40086E06FE970E00E94FB
:10072000F40087E06AE070E00E94F40088E060E096
:1007300070E00E94F40089E060E070E00E94F40044
:10074000CF91DF910895DF93CF9300D0CDB7DEB77F
:100750009A838983E981FA8180818260E981FA81C3
:100760008083E981FA8180818160E981FA818083D7
:100770000F900F90CF91DF910895DF93CF9300D02A
:10078000CDB7DEB79A838983E981FA81808182605F
:10079000E981FA818083E981FA8180818E7FE98114
:1007A000FA8180830F900F90CF91DF910895DF93AE
:1007B000CF9300D0CDB7DEB79A838983E981FA81E0
:1007C00080818D7FE981FA818083E981FA8180814E
:1007D0008160E981FA8180830F900F90CF91DF9142
:1007E0000895DF93CF9300D0CDB7DEB79A83898386
:1007F000E981FA8180818D7FE981FA818083E981B5
:10080000FA8180818E7FE981FA8180830F900F9039
:10081000CF91DF910895DF93CF9300D000D000D027
:10082000CDB7DEB79A8389837C836B838B819C8170
:100830009E838D838D819E8182309105D9F08D813B
:100840009E818330910530F48D819E8181309105A8
:1008500061F01EC08D819E818330910581F08D8174
:100860009E818430910581F013C089819A810E9414
:10087000A3030EC089819A810E94BD0309C08981AA
:100880009A810E94D70304C089819A810E94F10352
:1008900026960FB6F894DEBF0FBECDBFCF91DF9185
:1008A0000895DF93CF9300D0CDB7DEB79A838983C5
:1008B000E981FA818081877FE981FA818083E981FA
:1008C000FA8180818B7FE981FA8180830F900F907C
:1008D000CF91DF910895DF93CF9300D0CDB7DEB7EE
:1008E0009A838983E981FA818081877FE981FA810E
:1008F0008083E981FA8180818460E981FA81808343
:100900000F900F90CF91DF910895DF93CF9300D098
:10091000CDB7DEB79A838983E981FA8180818860C7
:10092000E981FA818083E981FA8180818B7FE98185
:10093000FA8180830F900F90CF91DF910895DF931C
:10094000CF9300D0CDB7DEB79A838983E981FA814E
:1009500080818860E981FA818083E981FA818081E0
:100960008460E981FA8180830F900F90CF91DF91AD
:100970000895DF93CF9300D000D000D0CDB7DEB77D
:100980009A8389837C836B838B819C819E838D83F7
:100990008D819E8182309105D9F08D819E81833039
:1009A000910530F48D819E818130910561F01EC0EA
:1009B0008D819E818330910581F08D819E8184306F
:1009C000910581F013C089819A810E9451040EC063
:1009D00089819A810E946B0409C089819A810E9451
:1009E000850404C089819A810E949F0426960FB6CF
:1009F000F894DEBF0FBECDBFCF91DF910895DF9396
:100A0000CF9300D0CDB7DEB79A838983E981FA818D
:100A100080818F7DE981FA818083E981FA818081FB
:100A20008F7EE981FA818083E981FA818081886003
:100A3000E981FA818083E981FA8180818460E9819A
:100A4000FA8180830F900F90CF91DF910895DF930B
:100A5000CF9300D0CDB7DEB79A838983E981FA813D
:100A600080818F7DE981FA818083E981FA818081AB
:100A70008061E981FA818083E981FA8180818860DF
:100A8000E981FA818083E981FA8180818B7FE98124
:100A9000FA8180830F900F90CF91DF910895DF93BB
:100AA000CF9300D0CDB7DEB79A838983E981FA81ED
:100AB00080818062E981FA818083E981FA81808185
:100AC0008F7EE981FA818083E981FA818081877F45
:100AD000E981FA818083E981FA8180818B7FE981D4
:100AE000FA8180830F900F90CF91DF910895DF936B
:100AF000CF9300D0CDB7DEB79A838983E981FA819D
:100B000080818F7DE981FA818083E981FA8180810A
:100B10008F7EE981FA818083E981FA818081877FF4
:100B2000E981FA818083E981FA8180818B7FE98183
:100B3000FA8180830F900F90CF91DF910895DF931A
:100B4000CF9300D0CDB7DEB79A838983E981FA814C
:100B500080818062E981FA818083E981FA818081E4
:100B60008061E981FA818083E981FA8180818860EE
:100B7000E981FA818083E981FA8180818460E98159
:100B8000FA8180830F900F90CF91DF910895DF93CA
:100B9000CF9300D0CDB7DEB79A838983E981FA81FC
:100BA00080818F7DE981FA818083E981FA8180816A
:100BB0008061E981FA818083E981FA81808188609E
:100BC000E981FA818083E981FA8180818460E98109
:100BD000FA8180830F900F90CF91DF910895DF937A
:100BE000CF9300D000D000D0CDB7DEB79A838983F1
:100BF0007C836B838B819C819E838D838D819E8181
:100C00008330910551F18D819E818430910558F496
:100C10008D819E8181309105B1F08D819E818230E0
:100C20009105B1F02DC08D819E8185309105F9F03F
:100C30008D819E8185309105A8F08D819E818630C1
:100C40009105D1F01DC089819A810E94FF0418C0CE
:100C500089819A810E94270513C089819A810E9407
:100C60004F050EC089819A810E94770509C089814C
:100C70009A810E949F0504C089819A810E94C705BC
:100C800026960FB6F894DEBF0FBECDBFCF91DF9191
:100C90000895DF93CF93CDB7DEB7E8EBF0E081E1C5
:100CA0008083ECEBF0E01082E9EBF0E01082CF9172
:100CB000DF910895DF93CF93CDB7DEB7ECEBF0E093
:100CC00084EA8083ECEBF0E080818823DCF7E9EBB9
:100CD000F0E08081882F90E0887F907088309105C7
:100CE00011F00E94DC06CF91DF910895DF93CF933E
:100CF00000D000D00F92CDB7DEB789837B836A83A3
:100D0000EBEBF0E089818083ECEBF0E084E880831A
:100D1000ECEBF0E080818823DCF78A819B819D8366
:100D20008C838C819D8182309105B9F08C819D816D
:100D300083309105F9F08C819D818130910539F5E1
:100D4000E9EBF0E08081882F90E0887F907080341C
:100D50009105F9F00E94DC061CC0E9EBF0E080810F
:100D6000882F90E0887F90708035910591F00E94E7
:100D7000DC060FC0E9EBF0E08081882F90E0887FEF
:100D800090708035910529F00E94DC0602C00E9417
:100D9000DC060F900F900F900F900F90CF91DF9186
:100DA0000895DF93CF93CDB7DEB7ECEBF0E084E9A5
:100DB0008083CF91DF910895DF93CF93CDB7DEB7D6
:100DC000CF91DF910895DF93CF93CDB7DEB7ABE23C
:100DD000B0E0EBE2F0E0808184608C93ABE2B0E0C5
:100DE000EBE2F0E0808188608C93AAE2B0E0EAE276
:100DF000F0E0808180628C93AAE2B0E0EAE2F0E069
:100E0000808180648C93AAE2B0E0EAE2F0E0808125
:100E100080688C93CF91DF910895DF93CF93CDB706
:100E2000DEB7A9E6B0E0E9E6F0E0808188608C9367
:100E3000A9E6B0E0E9E6F0E0808182608C93ADE362
:100E4000B0E0EDE3F0E0808182608C93ADE3B0E050
:100E5000EDE3F0E0808181608C93CF91DF91089584
:100E6000DF93CF93CDB7DEB7ABE2B0E0EBE2F0E0DB
:100E700080818F7D8C93ABE2B0E0EBE2F0E080818B
:100E80008F7B8C93ABE2B0E0EBE2F0E080818F7778
:100E90008C93CF91DF910895DF93CF93CDB7DEB7D9
:100EA0000E94E3060E940D077894ABE2B0E0EBE20B
:100EB000F0E0808180628C930E946303FFCF1F92D9
:100EC0000F920FB60F9211242F933F934F935F937E
:100ED0006F937F938F939F93AF93BF93EF93FF9302
:100EE000DF93CF93CDB7DEB7F8940E943007ABE223
:100EF000B0E0EBE2F0E0808180648C930E942701F7
:100F00007894CF91DF91FF91EF91BF91AF919F9135
:100F10008F917F916F915F914F913F912F910F90A2
:100F20000FBE0F901F9018951F920F920FB60F9241
:100F300011242F933F934F935F936F937F938F93DE
:100F40009F93AF93BF93EF93FF93DF93CF93CDB76F
:100F5000DEB7F8940E943007ABE2B0E0EBE2F0E0DD
:100F6000808180688C930E9482017894CF91DF9178
:100F7000FF91EF91BF91AF919F918F917F916F9171
:100F80005F914F913F912F910F900FBE0F901F9047
:060F90001895F894FFCF54
:00000001FF
